{
  "contractName": "Land",
  "abi": [
    {
      "constant": true,
      "inputs": [],
      "name": "usercount",
      "outputs": [
        {
          "name": "",
          "type": "uint256"
        }
      ],
      "payable": false,
      "stateMutability": "view",
      "type": "function",
      "signature": "0x0f322c1e"
    },
    {
      "constant": true,
      "inputs": [
        {
          "name": "",
          "type": "uint256"
        }
      ],
      "name": "admins",
      "outputs": [
        {
          "name": "region",
          "type": "string"
        },
        {
          "name": "adminaddress",
          "type": "address"
        }
      ],
      "payable": false,
      "stateMutability": "view",
      "type": "function",
      "signature": "0x14bfd6d0"
    },
    {
      "constant": true,
      "inputs": [],
      "name": "adminCount",
      "outputs": [
        {
          "name": "",
          "type": "uint256"
        }
      ],
      "payable": false,
      "stateMutability": "view",
      "type": "function",
      "signature": "0x2b7832b3"
    },
    {
      "constant": true,
      "inputs": [
        {
          "name": "",
          "type": "uint256"
        }
      ],
      "name": "approved_users",
      "outputs": [
        {
          "name": "approved_address",
          "type": "address"
        }
      ],
      "payable": false,
      "stateMutability": "view",
      "type": "function",
      "signature": "0x386ce54b"
    },
    {
      "constant": true,
      "inputs": [],
      "name": "creatorAdmin",
      "outputs": [
        {
          "name": "",
          "type": "address"
        }
      ],
      "payable": false,
      "stateMutability": "view",
      "type": "function",
      "signature": "0x7b855bf0"
    },
    {
      "constant": true,
      "inputs": [
        {
          "name": "",
          "type": "address"
        }
      ],
      "name": "users",
      "outputs": [
        {
          "name": "",
          "type": "int256"
        }
      ],
      "payable": false,
      "stateMutability": "view",
      "type": "function",
      "signature": "0xa87430ba"
    },
    {
      "inputs": [],
      "payable": false,
      "stateMutability": "nonpayable",
      "type": "constructor",
      "signature": "constructor"
    },
    {
      "constant": false,
      "inputs": [
        {
          "name": "_region",
          "type": "string"
        },
        {
          "name": "_address",
          "type": "address"
        }
      ],
      "name": "createAdmin",
      "outputs": [
        {
          "name": "",
          "type": "bool"
        }
      ],
      "payable": false,
      "stateMutability": "nonpayable",
      "type": "function",
      "signature": "0xa6150a34"
    },
    {
      "constant": false,
      "inputs": [
        {
          "name": "_useraddress",
          "type": "address"
        }
      ],
      "name": "createUser",
      "outputs": [
        {
          "name": "",
          "type": "bool"
        }
      ],
      "payable": false,
      "stateMutability": "nonpayable",
      "type": "function",
      "signature": "0xcdd87618"
    },
    {
      "constant": false,
      "inputs": [
        {
          "name": "_region",
          "type": "string"
        },
        {
          "name": "_value",
          "type": "uint256"
        },
        {
          "name": "_currowner",
          "type": "address"
        },
        {
          "name": "_id",
          "type": "uint256"
        }
      ],
      "name": "createProperty",
      "outputs": [
        {
          "name": "",
          "type": "bool"
        }
      ],
      "payable": false,
      "stateMutability": "nonpayable",
      "type": "function",
      "signature": "0xb078242b"
    },
    {
      "constant": false,
      "inputs": [
        {
          "name": "_id",
          "type": "uint256"
        }
      ],
      "name": "approveProperty",
      "outputs": [
        {
          "name": "",
          "type": "bool"
        }
      ],
      "payable": false,
      "stateMutability": "nonpayable",
      "type": "function",
      "signature": "0xe9b66f8c"
    },
    {
      "constant": false,
      "inputs": [
        {
          "name": "_id",
          "type": "uint256"
        }
      ],
      "name": "rejectProperty",
      "outputs": [
        {
          "name": "",
          "type": "bool"
        }
      ],
      "payable": false,
      "stateMutability": "nonpayable",
      "type": "function",
      "signature": "0x27983fcf"
    },
    {
      "constant": false,
      "inputs": [
        {
          "name": "_id",
          "type": "uint256"
        },
        {
          "name": "_currowner",
          "type": "address"
        },
        {
          "name": "_newowner",
          "type": "address"
        }
      ],
      "name": "propertyTransfer",
      "outputs": [
        {
          "name": "",
          "type": "bool"
        }
      ],
      "payable": false,
      "stateMutability": "nonpayable",
      "type": "function",
      "signature": "0xeb9c4e6a"
    },
    {
      "constant": false,
      "inputs": [
        {
          "name": "_id",
          "type": "uint256"
        },
        {
          "name": "_newowner",
          "type": "address"
        }
      ],
      "name": "acceptOwnershipTransfer",
      "outputs": [
        {
          "name": "",
          "type": "bool"
        }
      ],
      "payable": false,
      "stateMutability": "nonpayable",
      "type": "function",
      "signature": "0x32d69f59"
    },
    {
      "constant": true,
      "inputs": [
        {
          "name": "_id",
          "type": "uint256"
        }
      ],
      "name": "getPropertyDetails",
      "outputs": [
        {
          "name": "_status",
          "type": "uint8"
        },
        {
          "name": "_region",
          "type": "string"
        },
        {
          "name": "_value",
          "type": "uint256"
        },
        {
          "name": "_currowner",
          "type": "address"
        }
      ],
      "payable": false,
      "stateMutability": "view",
      "type": "function",
      "signature": "0x126dbe43"
    }
  ],
  "bytecode": "0x608060405234801561001057600080fd5b50336000806101000a81548173ffffffffffffffffffffffffffffffffffffffff021916908373ffffffffffffffffffffffffffffffffffffffff1602179055506003600860008060009054906101000a900473ffffffffffffffffffffffffffffffffffffffff1673ffffffffffffffffffffffffffffffffffffffff1673ffffffffffffffffffffffffffffffffffffffff168152602001908152602001600020819055506001600960008060009054906101000a900473ffffffffffffffffffffffffffffffffffffffff1673ffffffffffffffffffffffffffffffffffffffff1673ffffffffffffffffffffffffffffffffffffffff16815260200190815260200160002060006101000a81548160ff0219169083151502179055506118f08061013f6000396000f3fe6080604052600436106100d0576000357c0100000000000000000000000000000000000000000000000000000000900463ffffffff1680630f322c1e146100d5578063126dbe431461010057806314bfd6d01461020357806327983fcf146102ea5780632b7832b31461033d57806332d69f5914610368578063386ce54b146103db5780637b855bf014610456578063a6150a34146104ad578063a87430ba146105ad578063b078242b14610612578063cdd8761814610726578063e9b66f8c1461078f578063eb9c4e6a146107e2575b600080fd5b3480156100e157600080fd5b506100ea610875565b6040518082815260200191505060405180910390f35b34801561010c57600080fd5b506101396004803603602081101561012357600080fd5b810190808035906020019092919050505061087b565b6040518085600381111561014957fe5b60ff168152602001806020018481526020018373ffffffffffffffffffffffffffffffffffffffff1673ffffffffffffffffffffffffffffffffffffffff168152602001828103825285818151815260200191508051906020019080838360005b838110156101c55780820151818401526020810190506101aa565b50505050905090810190601f1680156101f25780820380516001836020036101000a031916815260200191505b509550505050505060405180910390f35b34801561020f57600080fd5b5061023c6004803603602081101561022657600080fd5b81019080803590602001909291905050506109be565b60405180806020018373ffffffffffffffffffffffffffffffffffffffff1673ffffffffffffffffffffffffffffffffffffffff168152602001828103825284818151815260200191508051906020019080838360005b838110156102ae578082015181840152602081019050610293565b50505050905090810190601f1680156102db5780820380516001836020036101000a031916815260200191505b50935050505060405180910390f35b3480156102f657600080fd5b506103236004803603602081101561030d57600080fd5b8101908080359060200190929190505050610a9a565b604051808215151515815260200191505060405180910390f35b34801561034957600080fd5b50610352610bf8565b6040518082815260200191505060405180910390f35b34801561037457600080fd5b506103c16004803603604081101561038b57600080fd5b8101908080359060200190929190803573ffffffffffffffffffffffffffffffffffffffff169060200190929190505050610bfe565b604051808215151515815260200191505060405180910390f35b3480156103e757600080fd5b50610414600480360360208110156103fe57600080fd5b8101908080359060200190929190505050610ea1565b604051808273ffffffffffffffffffffffffffffffffffffffff1673ffffffffffffffffffffffffffffffffffffffff16815260200191505060405180910390f35b34801561046257600080fd5b5061046b610edf565b604051808273ffffffffffffffffffffffffffffffffffffffff1673ffffffffffffffffffffffffffffffffffffffff16815260200191505060405180910390f35b3480156104b957600080fd5b50610593600480360360408110156104d057600080fd5b81019080803590602001906401000000008111156104ed57600080fd5b8201836020820111156104ff57600080fd5b8035906020019184600183028401116401000000008311171561052157600080fd5b91908080601f016020809104026020016040519081016040528093929190818152602001838380828437600081840152601f19601f820116905080830192505050505050509192919290803573ffffffffffffffffffffffffffffffffffffffff169060200190929190505050610f04565b604051808215151515815260200191505060405180910390f35b3480156105b957600080fd5b506105fc600480360360208110156105d057600080fd5b81019080803573ffffffffffffffffffffffffffffffffffffffff1690602001909291905050506110c1565b6040518082815260200191505060405180910390f35b34801561061e57600080fd5b5061070c6004803603608081101561063557600080fd5b810190808035906020019064010000000081111561065257600080fd5b82018360208201111561066457600080fd5b8035906020019184600183028401116401000000008311171561068657600080fd5b91908080601f016020809104026020016040519081016040528093929190818152602001838380828437600081840152601f19601f82011690508083019250505050505050919291929080359060200190929190803573ffffffffffffffffffffffffffffffffffffffff169060200190929190803590602001909291905050506110d9565b604051808215151515815260200191505060405180910390f35b34801561073257600080fd5b506107756004803603602081101561074957600080fd5b81019080803573ffffffffffffffffffffffffffffffffffffffff1690602001909291905050506112a9565b604051808215151515815260200191505060405180910390f35b34801561079b57600080fd5b506107c8600480360360208110156107b257600080fd5b8101908080359060200190929190505050611529565b604051808215151515815260200191505060405180910390f35b3480156107ee57600080fd5b5061085b6004803603606081101561080557600080fd5b8101908080359060200190929190803573ffffffffffffffffffffffffffffffffffffffff169060200190929190803573ffffffffffffffffffffffffffffffffffffffff169060200190929190505050611687565b604051808215151515815260200191505060405180910390f35b60025481565b600060606000806004600086815260200190815260200160002060000160009054906101000a900460ff16935083600460008781526020019081526020016000206001018054600181600116156101000203166002900480601f0160208091040260200160405190810160405280929190818152602001828054600181600116156101000203166002900480156109535780601f1061092857610100808354040283529160200191610953565b820191906000526020600020905b81548152906001019060200180831161093657829003601f168201915b505050505093508360046000888152602001908152602001600020600201549350836004600089815260200190815260200160002060030160009054906101000a900473ffffffffffffffffffffffffffffffffffffffff1693508393509350935093509193509193565b6006602052806000526040600020600091509050806000018054600181600116156101000203166002900480601f016020809104026020016040519081016040528092919081815260200182805460018160011615610100020316600290048015610a6a5780601f10610a3f57610100808354040283529160200191610a6a565b820191906000526020600020905b815481529060010190602001808311610a4d57829003601f168201915b5050505050908060010160009054906101000a900473ffffffffffffffffffffffffffffffffffffffff16905082565b60006003600860003373ffffffffffffffffffffffffffffffffffffffff1673ffffffffffffffffffffffffffffffffffffffff16815260200190815260200160002054148015610b3b575060011515600960003373ffffffffffffffffffffffffffffffffffffffff1673ffffffffffffffffffffffffffffffffffffffff16815260200190815260200160002060009054906101000a900460ff161515145b1515610b4657600080fd5b3373ffffffffffffffffffffffffffffffffffffffff166004600084815260200190815260200160002060030160009054906101000a900473ffffffffffffffffffffffffffffffffffffffff1673ffffffffffffffffffffffffffffffffffffffff1614151515610bb757600080fd5b60036004600084815260200190815260200160002060000160006101000a81548160ff02191690836003811115610bea57fe5b021790555060019050919050565b60015481565b60006003600860003373ffffffffffffffffffffffffffffffffffffffff1673ffffffffffffffffffffffffffffffffffffffff16815260200190815260200160002054148015610c9f575060011515600960003373ffffffffffffffffffffffffffffffffffffffff1673ffffffffffffffffffffffffffffffffffffffff16815260200190815260200160002060009054906101000a900460ff161515145b1515610caa57600080fd5b8173ffffffffffffffffffffffffffffffffffffffff166004600085815260200190815260200160002060030160009054906101000a900473ffffffffffffffffffffffffffffffffffffffff1673ffffffffffffffffffffffffffffffffffffffff1614158015610d55575060016003811115610d2457fe5b6004600085815260200190815260200160002060000160009054906101000a900460ff166003811115610d5357fe5b145b1515610d6057600080fd5b60011515600960008473ffffffffffffffffffffffffffffffffffffffff1673ffffffffffffffffffffffffffffffffffffffff16815260200190815260200160002060009054906101000a900460ff161515148015610dff57506002600860008473ffffffffffffffffffffffffffffffffffffffff1673ffffffffffffffffffffffffffffffffffffffff16815260200190815260200160002054145b1515610e0a57600080fd5b816004600085815260200190815260200160002060030160006101000a81548173ffffffffffffffffffffffffffffffffffffffff021916908373ffffffffffffffffffffffffffffffffffffffff16021790555060026004600085815260200190815260200160002060000160006101000a81548160ff02191690836003811115610e9257fe5b02179055506001905092915050565b60076020528060005260406000206000915090508060000160009054906101000a900473ffffffffffffffffffffffffffffffffffffffff16905081565b6000809054906101000a900473ffffffffffffffffffffffffffffffffffffffff1681565b60008060009054906101000a900473ffffffffffffffffffffffffffffffffffffffff1673ffffffffffffffffffffffffffffffffffffffff163373ffffffffffffffffffffffffffffffffffffffff16141515610f6157600080fd5b60016000815480929190600101919050555060408051908101604052808481526020018373ffffffffffffffffffffffffffffffffffffffff168152506006600060015481526020019081526020016000206000820151816000019080519060200190610fcf92919061181f565b5060208201518160010160006101000a81548173ffffffffffffffffffffffffffffffffffffffff021916908373ffffffffffffffffffffffffffffffffffffffff1602179055509050506003600860008473ffffffffffffffffffffffffffffffffffffffff1673ffffffffffffffffffffffffffffffffffffffff168152602001908152602001600020819055506001600960008473ffffffffffffffffffffffffffffffffffffffff1673ffffffffffffffffffffffffffffffffffffffff16815260200190815260200160002060006101000a81548160ff0219169083151502179055506001905092915050565b60086020528060005260406000206000915090505481565b6000816002600860003373ffffffffffffffffffffffffffffffffffffffff1673ffffffffffffffffffffffffffffffffffffffff1681526020019081526020016000205414801561118c57503373ffffffffffffffffffffffffffffffffffffffff166007600083815260200190815260200160002060000160009054906101000a900473ffffffffffffffffffffffffffffffffffffffff1673ffffffffffffffffffffffffffffffffffffffff16145b151561119757600080fd5b600360008154809291906001019190505550608060405190810160405280600160038111156111c257fe5b81526020018781526020018681526020018573ffffffffffffffffffffffffffffffffffffffff1681525060046000600354815260200190815260200160002060008201518160000160006101000a81548160ff0219169083600381111561122657fe5b0217905550602082015181600101908051906020019061124792919061181f565b506040820151816002015560608201518160030160006101000a81548173ffffffffffffffffffffffffffffffffffffffff021916908373ffffffffffffffffffffffffffffffffffffffff1602179055509050506001915050949350505050565b60006003600860003373ffffffffffffffffffffffffffffffffffffffff1673ffffffffffffffffffffffffffffffffffffffff1681526020019081526020016000205414801561134a575060011515600960003373ffffffffffffffffffffffffffffffffffffffff1673ffffffffffffffffffffffffffffffffffffffff16815260200190815260200160002060009054906101000a900460ff161515145b151561135557600080fd5b6002600860008473ffffffffffffffffffffffffffffffffffffffff1673ffffffffffffffffffffffffffffffffffffffff16815260200190815260200160002054141580156113e557506003600860008473ffffffffffffffffffffffffffffffffffffffff1673ffffffffffffffffffffffffffffffffffffffff1681526020019081526020016000205414155b15156113f057600080fd5b6002600081548092919060010191905055506020604051908101604052808373ffffffffffffffffffffffffffffffffffffffff1681525060076000600254815260200190815260200160002060008201518160000160006101000a81548173ffffffffffffffffffffffffffffffffffffffff021916908373ffffffffffffffffffffffffffffffffffffffff1602179055509050506002600860008473ffffffffffffffffffffffffffffffffffffffff1673ffffffffffffffffffffffffffffffffffffffff168152602001908152602001600020819055506001600960008473ffffffffffffffffffffffffffffffffffffffff1673ffffffffffffffffffffffffffffffffffffffff16815260200190815260200160002060006101000a81548160ff021916908315150217905550919050565b60006003600860003373ffffffffffffffffffffffffffffffffffffffff1673ffffffffffffffffffffffffffffffffffffffff168152602001908152602001600020541480156115ca575060011515600960003373ffffffffffffffffffffffffffffffffffffffff1673ffffffffffffffffffffffffffffffffffffffff16815260200190815260200160002060009054906101000a900460ff161515145b15156115d557600080fd5b3373ffffffffffffffffffffffffffffffffffffffff166004600084815260200190815260200160002060030160009054906101000a900473ffffffffffffffffffffffffffffffffffffffff1673ffffffffffffffffffffffffffffffffffffffff161415151561164657600080fd5b60026004600084815260200190815260200160002060000160006101000a81548160ff0219169083600381111561167957fe5b021790555060019050919050565b60008173ffffffffffffffffffffffffffffffffffffffff166004600086815260200190815260200160002060030160009054906101000a900473ffffffffffffffffffffffffffffffffffffffff1673ffffffffffffffffffffffffffffffffffffffff161415801561172757508173ffffffffffffffffffffffffffffffffffffffff168373ffffffffffffffffffffffffffffffffffffffff1614155b151561173257600080fd5b60011515600960008473ffffffffffffffffffffffffffffffffffffffff1673ffffffffffffffffffffffffffffffffffffffff16815260200190815260200160002060009054906101000a900460ff1615151480156117d157506002600860008473ffffffffffffffffffffffffffffffffffffffff1673ffffffffffffffffffffffffffffffffffffffff16815260200190815260200160002054145b15156117dc57600080fd5b60016004600086815260200190815260200160002060000160006101000a81548160ff0219169083600381111561180f57fe5b0217905550600190509392505050565b828054600181600116156101000203166002900490600052602060002090601f016020900481019282601f1061186057805160ff191683800117855561188e565b8280016001018555821561188e579182015b8281111561188d578251825591602001919060010190611872565b5b50905061189b919061189f565b5090565b6118c191905b808211156118bd5760008160009055506001016118a5565b5090565b9056fea165627a7a7230582046b9321a2ee17f43a37e42cde63d544cabaa4fab415e95399a879980090ab8bd0029",
  "source": "pragma solidity ^0.5.0;\n\ncontract Land {\n    \n    \n    //Property Details Structure\n    struct PropertyDetails {\n        Status status;\n        string region;\n        uint value;\n        address currowner;\n    }\n    \n    \n    enum Status { NotExist, Pending, Approved, Rejected }\n    \n    \n    //Admin Details Structure\n    struct Admin {\n        string region;\n        address adminaddress;\n    }\n    \n    \n    //Approved Users List\n    struct ApprovedUsers {\n        address approved_address;\n    }\n    \n    \n    //State variables\n    address public creatorAdmin;\n    uint public adminCount;\n    uint public usercount;\n    uint propertyCount;\n    \n    \n    //Mappings \n    mapping(uint => PropertyDetails) properties;\n    \n    mapping(address => PropertyDetails) property_details;\n    \n    mapping(uint => Admin) public admins;\n    \n    mapping(uint => ApprovedUsers) public approved_users;\n\t\n    mapping(address => int) public users;\n    \n    mapping(address => bool) verifiedUsers;\n    \n    \n    //Modifiers\n    modifier onlyOwner(uint _id) {\n        require(users[msg.sender] == 2 && approved_users[_id].approved_address == msg.sender);\n        _;\n    }\n    \n    \n    modifier isAdmin() {\n        require(users[msg.sender] == 3 && verifiedUsers[msg.sender] == true);\n        _;\n    }\n    \n    \n    //Constructor to set the contract creator as the admin\n    constructor() public {\n        creatorAdmin = msg.sender;\n        users[creatorAdmin] = 3;\n        verifiedUsers[creatorAdmin] = true;\n    }\n    \n    \n    //Appoint an Admin\n    function createAdmin(string memory _region, address _address) public returns(bool) {\n        require(msg.sender == creatorAdmin);\n        adminCount++;\n        admins[adminCount] = Admin(_region, _address);\n        users[_address] = 3;\n        verifiedUsers[_address] = true;\n        return true;\n    }\n    \n    \n    //Appoint a User\n    function createUser(address _useraddress) public isAdmin returns(bool) {\n        require(users[_useraddress] != 2 && users[_useraddress] != 3);\n        usercount++;\n        approved_users[usercount] = ApprovedUsers(_useraddress);\n        users[_useraddress] = 2;\n        verifiedUsers[_useraddress] = true;\n    }\n    \n    \n    //Create a new Property\n    function createProperty(string memory _region, uint _value, address _currowner, uint _id) public onlyOwner(_id) returns(bool) {\n        propertyCount++;\n        properties[propertyCount] = PropertyDetails(Status.Pending ,_region, _value, _currowner);\n        return true;\n    }\n    \n    \n    //Approve the Property\n    function approveProperty(uint _id) public isAdmin returns(bool) {\n        require(properties[_id].currowner != msg.sender);\n        properties[_id].status = Status.Approved;\n\t\treturn true;\n    }\n    \n    \n    //Reject the Property\n    function rejectProperty(uint _id) public isAdmin returns(bool) {\n        require(properties[_id].currowner != msg.sender);\n        properties[_id].status = Status.Rejected;\n\t\treturn true;\n    }\n    \n    \n    //Transfer of Ownership\n    function propertyTransfer(uint _id, address _currowner, address _newowner) public returns(bool) {\n        require(properties[_id].currowner != _newowner && _currowner != _newowner);\n        require(verifiedUsers[_newowner] == true && users[_newowner] == 2);\n        properties[_id].status = Status.Pending;\n\t\treturn true;\n    } \n    \n    \n    //Accept transfer of ownership\n    function acceptOwnershipTransfer(uint _id, address _newowner) public isAdmin returns(bool) {\n        require(properties[_id].currowner != _newowner && properties[_id].status == Status.Pending);\n        require(verifiedUsers[_newowner] == true && users[_newowner] == 2);\n\t    properties[_id].currowner = _newowner;\n\t    properties[_id].status = Status.Approved;\n\t    return true;\n    }\n    \n    \n    //Get Property Details\n    function getPropertyDetails(uint _id) public view returns (Status _status, string memory _region, uint _value, address _currowner) {\n\t\treturn (_status = properties[_id].status, _region = properties[_id].region, _value = properties[_id].value, _currowner = properties[_id].currowner);\n\t}\n    \n    \n}",
  "sourcePath": "/home/shaggy/Ethereum Project/BitProp/contracts/BitProp.sol",
  "compiler": {
    "name": "solc",
    "version": "0.5.0+commit.1d4f565a.Emscripten.clang"
  },
  "schemaVersion": "3.0.6",
  "updatedAt": "2019-06-02T18:12:42.418Z",
  "devdoc": {
    "methods": {}
  },
  "userdoc": {
    "methods": {}
  }
}